:020000040800F2
:10000000101E00209D010008293800082531000835
:100010001136000855030008914000080000000058
:100020000000000000000000000000006D3B000820
:100030009D0D0008000000002D3800087D3D0008DF
:10004000B7010008B7010008B7010008B7010008B0
:10005000B7010008B7010008B7010008B7010008A0
:10006000B7010008B7010008B7010008B701000890
:10007000B7010008B7010008B7010008B701000880
:10008000B7010008B7010008B7010008B701000870
:10009000B7010008B7010008B7010008B701000860
:1000A000B7010008413E0008B7010008B701000889
:1000B000B7010008B7010008B7010008B701000840
:1000C000B7010008B7010008B7010008B701000830
:1000D000B701000809400008B7010008B70100088F
:1000E000B7010008B7010008B7010008B701000810
:1000F000B7010008B7010008B7010008B701000800
:10010000B7010008B7010008B7010008B7010008EF
:10011000B7010008B7010008B7010008B7010008DF
:10012000B7010008B7010008B7010008B7010008CF
:10013000B7010008B7010008B7010008B7010008BF
:10014000B7010008B7010008B7010008B7010008AF
:10015000B7010008B7010008B7010008B70100089F
:10016000B7010008B7010008B7010008B70100088F
:10017000B7010008B7010008B7010008000000003F
:10018000B7010008B7010008DFF80CD000F08CF8C8
:1001900000480047B5400008101E00200648804770
:1001A00006480047FEE7FEE7FEE7FEE7FEE7FEE75C
:1001B000FEE7FEE7FEE7FEE72D3E000889010008A6
:1001C0002DE9F05F0546002092469B46884606468C
:1001D000814640241BE0284641464746224600F01F
:1001E00053F853465A46C01A914110D31146184647
:1001F000224600F03AF82D1A67EB01084F462246D6
:100200000120002100F031F817EB00094E41201EBB
:10021000A4F10104DFDC484631462A464346BDE8E6
:10022000F09F40EA01039B0703D009E008C9121FB1
:1002300008C0042AFAD203E011F8013B00F8013BA0
:10024000521EF9D27047D2B201E000F8012B491ECC
:10025000FBD270470022F6E710B513460A46044663
:100260001946FFF7F0FF204610BD202A04DB203A94
:1002700000FA02F1002070479140C2F1200320FAF9
:1002800003F3194390407047202A04DB203A21FAF7
:1002900002F00021704721FA02F3D040C2F120029F
:1002A0009140084319467047064C074D06E0E06848
:1002B00040F0010394E8070098471034AC42F6D3AD
:1002C000FFF766FF94410008B44100080146886BBF
:1002D000036C026C13F0500F07D0D20648BF00F039
:1002E000EFBD806BC26C0846104742F40071016498
:1002F00001688A6812F0405F1CD1027E002A18BF94
:1003000000F0DABDCA6A12F4700F1CBF8A6812F4DA
:10031000806F0FD14A6822F020024A60016C21F4FC
:1003200080710164016C11F4805F02BF016C41F0C7
:100330000101016400F0C0BD806B40210164416C8B
:1003400041F00401416400F0BBBD0000806B00F08F
:10035000B5BD0000FEE7000041F22C300021C2F2E2
:10036000000080F8801080F8821080F8811041F63B
:100370000820C2F200000170704700002DE9F04F24
:10038000A3B041F22C3CC2F2000C9CF88000012882
:1003900040F0EC8000208CF880009CF8810003285D
:1003A000C0F0E4809CF881104FF6FE704FF6FF7E9F
:1003B0000A184AF2010112EA0E0F41D093B241F23B
:1003C0002C324FF6FF74C2F2000200BF12F8015B3C
:1003D0006C4004EA000514F0010F81EA550608BFDD
:1003E0006E0881EA560416F0010F08BF740881EA0E
:1003F000540514F0010F08BF650881EA550415F093
:10040000010F08BF6C0881EA540514F0010F08BF02
:10041000650881EA550415F0010F08BF6C0881EAF0
:10042000540514F0010F08BF650881EA550415F062
:10043000010F08BF6C08013BC8D1C4F3072001E0DD
:10044000FF24FF209CF88120E3B2624412F8022CC2
:100450009A4240F08B809CF88120624412F8012C73
:10046000824240F083809CF80000431E0D2B00F276
:100470002D822022C4F20102DFE813F00E001500E5
:1004800018007B00DC00E300EA002802F1002A02E9
:100490002802F8000101C4019CF88100042800F240
:1004A000288201201FE2022000211DE241F29C204F
:1004B000032200270DF12C0CC2F200008DF82C2035
:1004C0008DF82D70436B006CCDF83230CDF82E00D6
:1004D00001204FF6FE7302E01CF800200130D2B27A
:1004E00082EA0E0202EA030712F0010F81EA5706C0
:1004F00008BF7E0881EA560216F0010F08BF720895
:1005000081EA520712F0010F08BF570881EA57022B
:1005100017F0010F08BF7A0881EA520712F0010FA5
:1005200008BF570881EA570217F0010F08BF7A0881
:1005300081EA520412F0010F08BF540881EA540EF8
:1005400014F0010F08BF4FEA540E0A28C4D14FEA35
:100550001E208DF836E00BA90C2264238DF837009D
:1005600041F6C010C2F2000002F02AFD23B0BDE83F
:10057000F08F41F29C20042200260DF12C0CC2F2D7
:100580000000036BD0E90E708DF82C208DF82D60E3
:10059000CDF82E30CDF83270CDF8360001204FF670
:1005A000FE7302E01CF800200130D2B282EA0E0293
:1005B00002EA030712F0010F81EA570608BF7E081E
:1005C00081EA560216F0010F08BF720881EA52074D
:1005D00012F0010F08BF570881EA570217F0010F08
:1005E00008BF7A0881EA520712F0010F08BF5708C6
:1005F00081EA570217F0010F08BF7A0881EA520416
:1006000012F0010F08BF540881EA540E14F0010FD4
:1006100008BF4FEA540E0E28C4D14FEA1E208DF8B1
:100620003AE00BA910228DF83B0041F6C010C2F24F
:10063000000045E19CF88100032800F26681052056
:1006400051E19CF88100062800F2758106204AE1FC
:100650009CF88100032800F27E81072043E19CF88A
:100660008100032800F2858109203CE140F220004E
:100670000221C2F2000001730C20002134E140F29B
:1006800020004FF0000BC2F20000447B576941F29A
:100690009C22C2F20002136B0A93536B0693936B76
:1006A0000993D36B0893136C0593536C0793936F63
:1006B0000493D36F0093D2F880300293D2F8843041
:1006C0000393D2E922A2019241F60822C2F200026B
:1006D000D0F810901578D0E90168037890F801C03F
:1006E000007B0D228DF82C208DF82DB08DF82E007A
:1006F000E01E8DF82F408DF830308DF831C04FF668
:10070000FE730DF12C0CB0FA80F040098DF8320028
:10071000380A8DF833508DF834708DF83500CDF8E7
:100720003660CDF83A80CDF83E90CDF842A00098E2
:10073000CDF846000498CDF84A000298CDF84E0056
:100740000398CDF852000198CDF856000598CDF8E1
:100750005A000698CDF85E000A98CDF86200099814
:10076000CDF866000898CDF86A000798CDF86E00BD
:10077000012002E01CF800200130D2B282EA0E0211
:1007800002EA030712F0010F81EA570608BF7E084C
:1007900081EA560216F0010F08BF720881EA52077B
:1007A00012F0010F08BF570881EA570217F0010F36
:1007B00008BF7A0881EA520712F0010F08BF5708F4
:1007C00081EA570217F0010F08BF7A0881EA520444
:1007D00012F0010F08BF540881EA540E14F0010F03
:1007E00008BF4FEA540E4628C4D14FEA1E208DF8A8
:1007F00072E00BA948228DF8730041F6C010C2F2D6
:1008000000005DE00E200E224FF6FE730DF12C0C61
:10081000C4F242400B9043F24320C0F202000C901D
:100820000120C1F600300D9000208DF83800012025
:1008300002E01CF800200130D2B282EA0E0202EA85
:10084000030712F0010F81EA570608BF7E0881EA0C
:10085000560216F0010F08BF720881EA520712F023
:10086000010F08BF570881EA570217F0010F08BFB0
:100870007A0881EA520712F0010F08BF570881EA8F
:10088000570217F0010F08BF7A0881EA520412F0EC
:10089000010F08BF540881EA540E14F0010F08BF7D
:1008A0004FEA540E0D28C4D14FEA1E208DF839E0CE
:1008B0000BA90F228DF83A0041F6C010C2F20000D9
:1008C000642302F07DFB23B0BDE8F08F06210BE02E
:1008D0009CF88100042805D39CF801009CF8811045
:1008E000072955D80A20012123B0BDE8F04F03F0B5
:1008F0003FB940F22000C2F20000017B407B084378
:10090000000651D001200521EEE79CF8010041F6D8
:100910000821C2F20001002818BF0120087040F22F
:1009200018414FF4803018BF0120C4F20201086062
:1009300005200021D8E740F22000DCF80110C2F2C7
:1009400000004278012A44D0002A56D19FED460A81
:10095000B0EE001A41E09CF80100411EC9B2022924
:1009600013D240F22001C2F20001087307200021D7
:10097000BAE740F22000C2F20000017B427B114343
:1009800009061ED009200521AEE707200221ABE7AA
:1009900040F22001C2F200010A7B4B7B1A4312068F
:1009A00037D00A2005219FE79CF801009CF802102F
:1009B00040EA012040F63501884221D3012002217E
:1009C00092E79CF80110022920D201700920002131
:1009D0008AE79FED241AB1EE040A02EE101AB4EE73
:1009E000C21AF1EE10FA08DCB4EEC20AF1EE10FA07
:1009F00003DB41600620002176E70620022173E731
:100A000088B15061106840F005000FE00920022114
:100A10006AE7DCF8022001280CD000BB9FED120A27
:100A2000B0EE001A0AE0106820F005001060012006
:100A3000002159E79FED0B1AB1EE040A02EE102ACD
:100A4000B4EEC21AF1EE10FA09DCB4EEC20AF1EE0D
:100A500010FA04DB48704A600A20002144E70A20AB
:100A6000022141E7CDCCCC3D0000484280B540F2A8
:100A7000100041F29C23C2F20003C2F2000093ED89
:100A80001E3A90F810C003F1880290ED080A03F1B5
:100A90008001B1EE431ABCF1000F04BF03F17C02E8
:100AA000B0EE413ABCF1000FD2F800E008BF03F10C
:100AB0008401B4EEC03A0B68F1EE10FA0ADCB1EE34
:100AC000400AB4EEC03AF1EE10FA03DB002180F8E0
:100AD00024100CE090F82410013180F82410C9B2E1
:100AE00090F82520914222BF0321417780BD417CAF
:100AF000426900EE102A0029826239D002EE103AD3
:100B0000C36230EE421A80ED0C1A90ED0E6A90ED41
:100B10000F5A90ED0D4A01EE065A80ED0F5A21EE64
:100B2000046A90ED104AB4EEC45AB0EE447AF1EE85
:100B300010FA06DC90ED117AB4EEC75AF1EE10FA15
:100B400003DAB0EE475A80ED0F7A36EE055AB4EE6E
:100B5000C45A80ED125AF1EE10FA42DC90ED114ABF
:100B6000B4EEC45AF1EE10FA3BDBB0EE454A3AE07F
:100B700002EE10EAC0F82CE030EE421A80ED0C1ABA
:100B800090ED0E6A90ED0F5A90ED0D4A01EE065A67
:100B900080ED0F5A21EE046A90ED104AB4EEC45A6B
:100BA000B0EE447AF1EE10FA06DC90ED117AB4EE74
:100BB000C75AF1EE10FA03DAB0EE475A80ED0F7A19
:100BC00036EE055AB4EEC45A80ED125AF1EE10FA20
:100BD00007DC90ED114AB4EEC45AF1EE10FA80F23F
:100BE000868080ED124ABCF1010FB0EE435A80EDD1
:100BF000064A04BFB0EE445AB0EE434A35EE443ADA
:100C000080ED135A80ED144A80ED153AD0ED170AA5
:100C100090ED187A90ED166A03EE207A80ED187A3E
:100C200063EE060A90ED196AB4EEC67AF0EE461A43
:100C3000F1EE10FA06DCD0ED1A1AB4EEE17AF1EE1C
:100C400010FA03DAB0EE617AC0ED181A30EE877A46
:100C5000B4EEC67A80ED1B7AF1EE10FA06DC90ED68
:100C60001A6AB4EEC67AF1EE10FA03DAB0EE467AFA
:100C700080ED1B6A9FED1F6A3421BCEEC77AC4F277
:100C8000010120EE060A22EE062ABDEEC00A81ED21
:100C9000007A9FED197ABDEEC22A014610EE102AA5
:100CA00021EE060A21F8022F12EE102ABDEEC00A2C
:100CB000828010EE102A25EE071A23EE072ABDEED9
:100CC000C10A24EE071AC28010EE102ABDEEC10A36
:100CD0000281BDEEC21A10EE102A428111EE102AD6
:100CE00082810C220088BDE8804002F027BEB0EE71
:100CF000454A78E70000C84200007A4480B582B0D7
:100D000040F21000002200214BF2177340F2000C59
:100D100040F2000EC2F20000C4F27012C3F6D1031A
:100D2000CCF2201CC4F2201E41770177026214220B
:100D300080F825204FF0804201744174C0E90521FC
:100D40004DF20A72C3F6A342C0E90D23C0E90F1E9B
:100D5000002240F2000EC0F844C040F2000C4FF0F8
:100D60007E53C4F24822C4F2C82CC4F2FA4EC0E941
:100D70001623C0E9181EC0F868C040F29C220091FA
:100D800044F274114FF480530088C0F60001C2F29F
:100D9000000202F065FD02B080BD00007047000057
:100DA00072B600BFFEE70000B0B581B0002200922D
:100DB00090F83C20012A01D102217AE0012280F83A
:100DC0003C200A6893B20A2A4FEA430313FA82FCD2
:100DD00006D3D0F800E0ACF11E0C0EF10C0203E0DB
:100DE000D0F800E00EF110021368072404FA0CF4A6
:100DF000A34313608B68146803FA0CF342F2043CBB
:100E00002343C4F2010C13604A68062A05D802EB9A
:100E100082020EF13403053A0CE002EB82040C2A44
:100E200004D80EF13003A4F1230203E00EF12C03E9
:100E3000A4F141021D681F24944025EA04041C60AB
:100E40000C8804FA02F21C6822431A60ACF5417265
:100E500096452BD10968122906D1DCF8001041F41F
:100E60008001CCF8001021E021F00102102A1DD1F0
:100E7000DCF80020102942F40002CCF8002015D143
:100E800040F280014DF68362C2F20001C4F21B32CF
:100E90000968A1FB0212910C01EB8101490001E0FC
:100EA00000990139009100990029F9D1002180F8B9
:100EB0003C10C8B201B0B0BD7047000070470000E0
:100EC0007047000010B50446002C04BF012010BD7F
:100ED000206C30B9204600F09BF80020606484F854
:100EE0003C00206C10F0100F3AD1206C41F202113E
:100EF0000123C0F60073884340F00200206442F2F0
:100F00000430C4F20100016821F4403101606168DD
:100F10000268114301602068416821F480714160DA
:100F20002169426842EA01214160416821F0407133
:100F30004160A168426811434160816821F4006109
:100F40008160E168826811438160A16A826822F051
:100F5000706299428260826804D122F040510AE0B6
:100F6000012051E011438160816821F0405181608E
:100F7000E16A826811438160816821F00201816029
:100F8000217E826842EA4101816094F82020416814
:100F900082B141F400614EF200024160CFF6FF726F
:100FA000416821F460414160616A02EB413142686D
:100FB000114301E021F4006141600022C16ACFF6D3
:100FC000F07221F47001C162E16902EB0151C26A61
:100FD0001143C162816821F40071816094F830107E
:100FE000826842EA41218160816821F480618160E8
:100FF0006169826842EA8121012281600020606487
:10100000216C62F301012164002184F83C1010BDC1
:10101000F0B587B00027044642F2002340F60000F6
:1010200043F6300146F210460697CDE90477CDE944
:101030000277C4F20103C4F20200C4F20201C4F256
:10104000020622689A423DD042F20013C4F2010324
:101050009A425DD042F20003C4F201039A4240F08A
:101060009C80002701974A6942F480724A614A696C
:1010700002F480720192019A01970A6842F0040218
:101080000A60096801F00401019101990321CDE989
:10109000021102A9049700F09BFA40F290054FF468
:1010A00080604FF400614FF400524FF48073C2F23D
:1010B000000505F1100CC5E90067C5E902778CE869
:1010C0000F005BE00197A0F500604A6942F480627E
:1010D0004A614A6902F480620192019A01970A68A2
:1010E00042F001020A60096801F0010101910199D1
:1010F0000321CDE9021102A9049700F069FA40F238
:10110000302506F118004FF08061C2F2000524E09E
:10111000002701974A6942F400724A614A6902F461
:1011200000720192019A01970A6842F004020A6073
:10113000096801F00401019101990C210291032138
:10114000CDE9031702A900F043FA40F2701506F149
:1011500030004FF00071C2F200054FF480624FF48E
:1011600000634FF400564FF4807C28606960AF60E4
:10117000EF602A616B61AE61C5F81CC04FF40030AE
:10118000C5E90807284600F01FF9002805F13806D0
:1011900018BFFFF705FEA563346007B0F0BD00007F
:1011A000F0B581B00446002013460A46009094F83A
:1011B0003C00012802BF022001B0F0BD012084F8EC
:1011C0003C002168886810F0010F19D188684DF63D
:1011D0008366C4F21B3640F00100886040F2800054
:1011E000C2F200000068A0FB0606B00C00EB400055
:1011F00002E000BF00980138009000980028F9D163
:10120000886810F4807F1EBF886820F48070886032
:101210008E68206C16F0010F09D140F01000206498
:10122000606C40F001006064002001B0F0BD40F24D
:10123000017642F20807B043C4F2010740F480701F
:101240002064486810F4806F1FBF206C012666F38D
:101250000D302064256C002040F24D36C0F60006AB
:1012600015F4805F4FF000051CBF656C25F0060586
:10127000656484F83C0040F2CD25A06BC0F6000503
:10128000C0E90F5640F23936C0F60006C6646FF06A
:1012900022060E604E6846F080664E608E6846F408
:1012A00080768E604C3100F041F9D7F8FC3221682D
:1012B000A7F1080213F01F0F0BD0914227D1396814
:1012C00011F0405F23D1396841F08041396001B0AD
:1012D000F0BD914217D042F20022C4F201029142C5
:1012E0000BD042F20012C4F2010291420FD1D7F8A2
:1012F000FC2212F01F0F0AD105E0D7F8FC2202F001
:1013000010020F2A03D88A6812F0405F01D001B0A2
:10131000F0BD8A6842F080428A6001B0F0BD0000F2
:1013200070B50446A66D00F039FA054694F835000C
:10133000022825D12068016821F016010160416969
:1013400021F080014161216C09B9A16C19B10168DA
:1013500021F008010160016821F00101016000E055
:101360002068006810F0010F0ED000F017FA401B43
:101370000528F5D920206065032084F835000CE0AD
:1013800080206065012008E0E06D3F2101FA00F057
:10139000B060012084F8350000200021C0B284F83C
:1013A000341070BD90F8351002291FBF80214165AF
:1013B00001207047052180F835100068016821F090
:1013C00001010160002070472DE9F041044600F062
:1013D000E5F90546002C02BF0126F0B2BDE8F08118
:1013E000022084F83500002084F834002068016869
:1013F00021F00101016000E02068016811F0010F97
:1014000008D000F0CBF9401B0528F5D9032520238F
:10141000032667E0016848F23F02CFF2100201EABA
:10142000020CD4E90126D4E90353D4E90578D4E9C0
:10143000071E42EA0C0232432A431A433A4342EA65
:1014400008021143626A41EA0E01042A1DD1D4E95F
:101450000B37194339430160014651F8143F23F01B
:1014600007031343D4E90A2E42EA030CBEF1000F2E
:1014700013D0B8F5005F3BD0B8F1000F4BD1022A72
:101480004CD0012A40D042B948E00160014651F8F1
:10149000143F23F0070343EA020C4AF6AB22C1F8DB
:1014A00000C06FF00F010125002651FA80F1CAF645
:1014B000AA22A1FB02235F294FF03F014FEA13123A
:1014C00044F26C13C0F600039A5C40F2FF3320EA4A
:1014D00003004FF0000388BF40F004009140C4E9CE
:1014E00016028160F0B2636584F83550BDE8F08182
:1014F000032AD2D80125402306EB82070126DFE824
:1015000002F0020D0203EDE7AEF1C072B2FA82F210
:1015100052093AB9C1E7032A04D3BED1CEF300621F
:10152000002ABAD0012540230126DBE710B590F848
:1015300034C0BCF1010F48D04FF0010CD0F858E096
:1015400080F834C090F835C0BCF1010F3AD14FF0AB
:10155000020C80F835C04FF0000CC0F854C0D0F831
:1015600000C0DCF8004024F48024CCF80040CCF823
:1015700004308368402B0B4608BF1346CCF8083074
:1015800008BF0A46CCF80C203F22C16D02FA01F1D7
:10159000CEF80810DCF8001041F01601CCF800106D
:1015A000006C00281EBFDCF8000040F00800CCF8FA
:1015B0000000DCF8000040F00100CCF80000002042
:1015C000C0B210BD002180F834100220C0B210BD9E
:1015D0002DE9F04F82B041F60042082743F6004B58
:1015E0004FF0010E002500244FF00008C4F2020263
:1015F000C4F2010B904200F13E4202F1FF7208BFBB
:1016000007274FEAB223072B38BF4FEAB2270097CC
:101610000AE000BF08F1010804350234B8F1100FE8
:1016200004BF02B0BDE8F08F0E680EFA08FC16EA9F
:101630000C0FEFD0D1F8049009F0030AAAF10106CB
:10164000012E17D8D0F808E0CB68032202FA04F67E
:101650002EEA0606A3404FF0010E33438360C9F320
:101660000013466803FA08F326EA0C063343436086
:1016700003E000BFBAF1030F23D0C6680322BAF11A
:10168000020F02FA04F326EA03038E6806FA04F650
:1016900043EA0603C36014D105F01C030F2202FACB
:1016A00003F64FF6FC72C7F6FF7202EA58020244D4
:1016B000176AB7430E6906FA03F33B431362D1F886
:1016C00004900768032309F0030219F4403F03FA6A
:1016D00004F302FA04F227EA030342EA0302026077
:1016E00098D0002205F00C070F26019243F6440221
:1016F000BE40C4F2020213461A6842F480421A60E5
:101700001A6802F48042019228F00302019B5A44B5
:101710004FF60843CFF6FF73994652F80930B343AA
:10172000009E06FA07F73B4342F80930DBF8082031
:101730004B6822EA0C0213F4801F18BF42EA0C0225
:1017400013F4001FCBF8082043F60C42C4F2010248
:101750001646326822EA0C0218BF42EA0C0213F461
:10176000003F3260DBF8042022EA0C0218BF42EA94
:101770000C0213F4803FCBF80420DBF8002022EAAF
:101780000C0218BF42EA0C02CBF8002042E700002E
:10179000002A08BF090481617047000040F204007C
:1017A000C2F200008068704740F20400C2F20000FC
:1017B00001788268114481607047000080B543F66B
:1017C0000040C4F20200016841F400710160016848
:1017D00041F480610160016841F48071016003207F
:1017E00000F088F80F2000F005F800F025F8002040
:1017F00080BD000070B540F2040604464FF47A71D3
:10180000C2F200063078B1FBF0F040F28001C2F283
:1018100000010968B1FBF0F000F078FB01250F2C06
:1018200008D838B94FF0FF3021460022002500F0DB
:101830002FF87460284670BD82B043F64001002046
:101840000190C4F202014A6842F480424A604A6848
:1018500002F480420192019A0090086840F08050A2
:101860000860086800F080500090009802B070474F
:101870000028B8BF704700F01F010122400902FA9A
:1018800001F14EF20012CEF2000242F82010704731
:1018900010B500F00F034EF60C5E00F1604CB0F195
:1018A000FF3FA3F10403CEF2000E734403F10C04D6
:1018B000C8BF0CF56444DEF80000C0F3022000F15C
:1018C000040CC31E80F00700BCF1070F4FF0010CA1
:1018D00038BF0023042828BF04200CFA00F0013888
:1018E00008400CFA03F10F31984011400843000101
:1018F000207010BD4EF60C514FF6FF03CEF20001E2
:101900000A681A4060F30A2242F0806040F0FD70DD
:10191000086070472DE9F04104460D46002C00F0A8
:10192000A78043F60808C4F20208D8F8F80300F0CC
:101930000700A84208D288F8F853D8F8F80300F056
:101940000700A84240F09480206810F0020F17D0E2
:10195000410742BFD8F8001041F4E051C8F8001028
:10196000010742BFD8F8001041F46041C8F80010E8
:10197000D8F80010A26821F0F0011143C8F8001057
:10198000C00734D06068811E022905D258F8081CAF
:1019900011F0007F6CD00CE0012805D158F8081C2C
:1019A00011F4003F64D004E058F8081C11F0020F55
:1019B0005ED0D8F8001021F003010843C8F80000F9
:1019C000FFF7ECFE064641F2883700BFD8F800006A
:1019D000616800F00C00B0EB810F08D0FFF7DEFE6D
:1019E000801BB842F2D90320C0B2BDE8F081D8F81C
:1019F000F80300F00700A84207D988F8F853D8F890
:101A0000F80300F00700A84232D1206810F0040F5C
:101A100007D0D8F80010E26821F4E0511143C8F86B
:101A20000010000708D5D8F80000216920F46040B4
:101A300040EAC100C8F8000000F046F8D8F80010ED
:101A400044F25412C0F60002C1F30311515CC840C5
:101A500040F28001C2F20001086040F20800C2F2C8
:101A600000000068FFF7C6FE0020C0B2BDE8F081AC
:101A70000120C0B2BDE8F08140F2800043F60801C9
:101A800044F26412C2F20000C4F20201C0F6000285
:101A900000680968C1F38221515CC84070470000AA
:101AA00040F2800043F6080144F26412C2F20000E2
:101AB000C4F20201C0F6000200680968C1F34231B5
:101AC000515CC8407047000010B543F60404C4F2EE
:101AD0000204606800F00C0008280BD004281EBF28
:101AE00042F20040C0F2F40010BD47F64000C0F2E0
:101AF0007D1010BD2268206847F640010023C0F227
:101B00007D1110F4800F02F03F0204BF42F2004149
:101B1000C0F2F4012068C0F38810A1FB0001FEF7B9
:101B20004FFB21680222C1F3014102EB4101B0FBEE
:101B3000F1F010BD2DE9F04782B00446002C3FD0F3
:101B4000207843F6000A43F67007C4F2020AC4F292
:101B50000207C0073FD057F8680C00F00C000428BB
:101B600030D057F8680C00F00C00082804D157F862
:101B70006C0C10F4800F25D16668B6F5803F09D053
:101B8000DAF80000B6F5A02F40F0728140F4802012
:101B9000CAF80000DAF8000040F48030CAF800000B
:101BA000FFF7FCFD054600BFDAF8000010F4003F27
:101BB00011D1FFF7F3FD401B6428F5D9032098E10C
:101BC000012096E1DAF8000010F4003F03D06068CD
:101BD000002800F0D480207840F20008C4F24728A2
:101BE000800737D557F8680C10F00C0F20D057F845
:101BF000680C00F00C00082804BF57F86C0C10F4B7
:101C0000800F15D0E068002800F0A5800120C8F8FA
:101C10000000FFF7C3FD0546DAF8000010F0020FE0
:101C20000FD1FFF7BBFD401B0228F5D9032060E16F
:101C3000DAF8000010F0020F1CBFE068012840F045
:101C40008880DAF80000216920F0F80040EAC1003D
:101C5000CAF800002078000725D5606988B1012006
:101C6000C8F8800EFFF79AFD054600BF786810F0AF
:101C7000020F18D1FFF792FD401B0228F6D903206E
:101C800037E10020C8F8800EFFF788FD054600BF49
:101C9000786810F0020F06D0FFF780FD401B022885
:101CA000F6D9032025E12078400740F18C8057F8D1
:101CB000300C4FF0000910F0805F0FD1CDF8049088
:101CC0004FF0010957F8300C40F0805047F8300CC5
:101CD00057F8300C00F080500190019843F6000650
:101CE000CFF6FE765AF8060010F4807F14D15AF829
:101CF000060040F480704AF80600FFF74FFD0546E5
:101D00005AF8060010F4807F06D1FFF747FD401B0C
:101D10000228F5D90320ECE0A668012E05D038682A
:101D2000052E2ED140F004003860386840F00100E4
:101D30003860FFF733FD054641F28836386810F009
:101D4000020F37D1FFF72AFD401BB042F6D903201E
:101D5000CFE00120CDE00020C8F80000FFF71EFD15
:101D6000054600BFDAF8000010F0020F3FF472AF32
:101D7000FFF714FD411B03200229F3D9B9E001202C
:101D8000B7E020F001003860386820F004003860C7
:101D9000FFF704FD0546002ECED141F288363868A3
:101DA00010F0020F06D0FFF7F9FC411B0320B142EF
:101DB000F5D99EE0B9F1010F02BF57F8300C20F0C1
:101DC000805047F8300CA669002E00F0918057F83B
:101DD000680C00F00C00082803D1012E22D101204C
:101DE00087E00020C8F86000FFF7D8FC0546022E07
:101DF0000CD100BFDAF8000010F0007F55D0FFF7DB
:101E0000CDFC411B03200229F4D972E0DAF800006E
:101E100010F0007F6CD0FFF7C1FC411B03200229AA
:101E2000F4D966E057F86C0CE16900F480028A424C
:101E300063D1216A00F03F028A4260D1626A47F6AC
:101E4000C0710140B1EB821F5BD1A16A4FF6FF72F6
:101E5000C903914300F44032A1F580318A4252D146
:101E6000E16A00F07060B0EB016F41D0012040E00A
:101E700020F48030CAF80000DAF8000020F4802056
:101E8000CAF80000FFF78AFC0546002E7FF48CAEEE
:101E9000DAF8000010F4003F3FF49DAEFFF77EFC3F
:101EA000411B03206429F3D923E004F11C064FCE23
:101EB0000843D90340EA82104FF6FF72914340EA8B
:101EC0000660A1F58031084347F86C0C0120C8F882
:101ED0006000FFF763FC0446DAF8000010F0007FB2
:101EE00006D1FFF75BFC011B03200229F4D900E0B7
:101EF0000020C0B202B0BDE8F0870120F9E7012060
:101F0000F7E70120F5E70120F3E70000411E00207C
:101F1000B0EB116F1CBF012070474EF21002F0238E
:101F2000CEF2000251604EF62351CEF200010B704A
:101F300007219060116070477047000070470000F3
:101F400090F83C20012A02BF0221C8B27047B0B508
:101F500001F10805D1E900CE3CCDC96923F47C53D9
:101F600022F470521A432EF4F0431A432CF4E04347
:101F70001A4324F4C0431A432A4322F480421143F3
:101F800002685164002180F83C10BDE8B040C8B23E
:101F90007047000090F83C300222012B55D010B55C
:101FA000012380F83C3080F83D200268D2F804E03C
:101FB000D2F808C00C682EF070032343536041F23E
:101FC000FF73C4F200039A42BDE810400BDC40F2FC
:101FD000FF73C4F200039A4213DCB2F1804F29D0A0
:101FE00040F2004315E040F2FF33C4F201039A428D
:101FF00014DC41F60003C4F200039A421AD0002315
:1020000014E040F60003C4F200039A4212D040F6F6
:102010000043C4F200039A420CD010E044F20003E3
:10202000C4F201039A4205D040F20043C4F2010316
:102030009A4204D149682CF0800319439160012130
:10204000002280F83D1080F83C20D0B2704700009C
:1020500039B10322082908BF0222042908BF01223E
:1020600000E00022024492F84220012A1CBF012015
:102070007047022241B1082909D0042914BF80F811
:10208000452080F8432004E080F8422001E080F8F9
:102090004420006801F00F01042202FA01F1026AF3
:1020A0008A430262026A11430162416C41F40041B9
:1020B000416441F2FF71C4F2000188420FDC40F23A
:1020C000FF71C4F20001884217DCB0F1804F2DD0BF
:1020D00040F20041C4F20001884227D02DE040F2D6
:1020E000FF31C4F20101884214DC41F60001C4F260
:1020F000000188421AD0002114E040F60001C4F229
:102100000001884212D040F60041C4F2000188422A
:102110000CD012E044F20001C4F20101884205D063
:1021200040F20041C4F20101884206D1816801F009
:102130000701062904BF00207047016841F0010132
:10214000016000207047000010B50446002C04BF59
:10215000012010BD94F83D0028B9002084F83C000F
:10216000204600F0B1F8022040F6FF3284F83D002E
:10217000C4F200022068016890420FDCB0F1804F89
:102180001EBF40F20043C4F20003984217D040F64D
:102190000003C4F20003984211D014E040F600435B
:1021A000C4F2000398421EBF40F20043C4F2010390
:1021B000984204D00023C4F20103984203D1A368DB
:1021C00021F07001194341F6FF73C4F200039842F5
:1021D0000DDC90421FDCB0F1804F1EBF40F2004288
:1021E000C4F2000290423BD040F6000221E043F6E8
:1021F000FF72C4F20102904220DC42F20002C4F2FB
:10220000000290421EBF0022C4F20102904227D079
:1022100040F2004220E040F60042C4F20002904248
:102220001EBF41F60002C4F20002904218D041F6EF
:102230000042C4F20002904212D015E044F20002C3
:10224000C4F2010290421EBF44F60002C4F2010231
:10225000904205D044F20042C4F20102904203D100
:10226000226921F440711143E268A36921F08001E1
:10227000C262194340F200436268C4F20103826201
:1022800040F480629A4204BF62690263026842F0CD
:1022900004020260012242610160002084F84620AD
:1022A00084F83E2084F83F2084F8402084F84120C0
:1022B00084F8422084F8432084F8442084F84520A0
:1022C00084F83D2010BD000080B582B0016840F266
:1022D000004243F64000C4F20002C4F20200914200
:1022E0001AD00022C4F20102914220D10021002222
:1022F0000191416841F0010141600021406800F016
:102300000100019001981920FFF7C2FA192002B0CC
:10231000BDE88040FFF7ACBA00210091016841F0B0
:1023200002010160006800F002000090009802B015
:1023300080BD000090F83D1001291CBF01207047AE
:10234000022180F83D1041F2FF710068C4F20001E3
:1023500088420FDC40F2FF71C4F20001884217DCB2
:10236000B0F1804F2DD040F20041C4F2000188420C
:1023700027D02DE040F2FF31C4F20101884214DC85
:1023800041F60001C4F2000188421AD0002114E095
:1023900040F60001C4F20001884212D040F600412C
:1023A000C4F2000188420CD012E044F20001C4F2F1
:1023B0000101884205D040F20041C4F20101884287
:1023C00006D1816801F00701062904BF002070478B
:1023D000016841F0010101600020704790F83D1054
:1023E00001291CBF01207047022180F83D100068C0
:1023F000C16841F00101C16041F2FF71C4F2000106
:1024000088420FDC40F2FF71C4F20001884217DC01
:10241000B0F1804F2DD040F20041C4F2000188425B
:1024200027D02DE040F2FF31C4F20101884214DCD4
:1024300041F60001C4F2000188421AD0002114E0E4
:1024400040F60001C4F20001884212D040F600417B
:10245000C4F2000188420CD012E044F20001C4F240
:102460000101884205D040F20041C4F201018842D6
:1024700006D1816801F00701062904BF00207047DA
:10248000016841F0010101600020704790F83C3084
:102490000222012B00F0C58080B5012380F83C307A
:1024A00080F83D204FF67772D0F800C0DCF8083095
:1024B00023EA0202CCF808200B684F2B28DC1F2BE4
:1024C00043DD202B18BF302B43D0402B40F0AB8096
:1024D000D1F804E0C968DCF82030DCF8202022F0D4
:1024E0000102CCF82020DCF8182022F0F00242EAA9
:1024F0000111CCF8181023F00A0141EA0E01CCF8C2
:102500002010DCF8081021F0770141F047017DE050
:102510006F2B26DDB3F5005F47D0B3F5805F77D032
:10252000702B40F08080D1E90123C9681A4342EA48
:102530000121DCF8082022F47F421143CCF8081076
:10254000DCF8081041F0770160E0002B18BF102B79
:1025500069D1DCF8081021F07701194341F0070137
:1025600054E0502B33D0602B5DD1D1F804E0C96822
:10257000DCF82030DCF8202022F01002CCF82020FB
:10258000DCF8182022F4704242EA0131CCF818102D
:1025900023F0A00141EA0E11CCF82010DCF808105D
:1025A00021F0770141F0670130E0D1E90123C968EA
:1025B0001A4342EA0121DCF8082022F47F42114349
:1025C000CCF80810DCF8081041F480411EE0D1F886
:1025D00004E0C968DCF82030DCF8202022F0010299
:1025E000CCF82020DCF8182022F0F00242EA011199
:1025F000CCF8181023F00A0141EA0E01CCF82010A3
:10260000DCF8081021F0770141F05701CCF80810F0
:102610000022012180F83D10002180F83C10BDE827
:102620008040D0B270470122F3E7000070470000FD
:10263000B0B504462068C168026901EA0205A9072D
:1026400014D56FF00201016101212177806910F03A
:10265000030F03D02046FFF7E9FF05E0204600F016
:1026600075F8204600F04CFA00202077680715D551
:1026700020686FF00401016102212177806910F464
:10268000407F03D02046FFF7D1FF05E0204600F051
:102690005DF8204600F034FA00202077280715D591
:1026A00020686FF00801016104212177C06910F0F2
:1026B000030F03D02046FFF7B9FF05E0204600F0E6
:1026C00045F8204600F01CFA00202077E80615D5D2
:1026D00020686FF01001016108212177C06910F4B2
:1026E000407F03D02046FFF7A1FF05E0204600F021
:1026F0002DF8204600F004FA00202077E80706D0E5
:1027000020686FF001010161204600F0FBF9280606
:1027100006D520686FF0800101612046FFF70CFCB0
:10272000680606D520686FF040010161204600F080
:1027300001FAA80658BFB0BD20686FF02001016102
:102740002046BDE8B040FFF7F9BB0000704700002D
:1027500090F83C30012B02BF0223D8B270474FEAF9
:10276000B2020123032A80F83C3000F201812DE9F6
:10277000F041DFE802F002813EC303681E6A1A6A74
:1027800022F0010226F002061A621A46D3F804C0AB
:1027900052F8185F8F680C68374325F0730643F4CE
:1027A000806546EA040E40F20046C4F20106B542D6
:1027B00001BF27F00C04CF6827F004072743B54278
:1027C00001BFD1E905452CF44076264346EA050CC5
:1027D000C3F804C0C3F818E04E685E631F629F69C7
:1027E00047F008079F619F6927F004079F61096907
:1027F000B8E003681F6A1A6A22F4807227F400772F
:102800001A621A46D3F804C052F81C4F8E680D683D
:1028100047EA062E40F2004624F0730444EA050815
:1028200043F48065C4F20106B54209D1CF6840F295
:10283000FF443F0227EA04042EF4406744EA070EEF
:10284000B54201BFD1E905452CF4405747EA0417CA
:1028500047EA051CC3F804C0C3F81C804F68DF6357
:10286000C3F820E0DF6947F00807DF61DF6927F080
:102870000407DF61096975E003681F6A1A6A22F0BC
:10288000100227F020071A621A46D3F804C052F843
:10289000184F8E680D6847EA061E40F2004624F481
:1028A000E64444EA052843F48065C4F20106B542D3
:1028B00001BFCF686FF04F0404EA07142EF0C00781
:1028C00008BF44EA070EB54201BFD1E905452CF423
:1028D000406747EA840747EA850CC3F804C0C3F899
:1028E00018804F689F63C3F820E09F6947F4006732
:1028F0009F619F6927F480679F6131E00368D3F887
:1029000020C01A6A22F480522CF400541A621A462B
:10291000D3F804E052F81C6F8F680D6844EA073C56
:1029200026F4E64440F2004644EA052543F4806478
:10293000C4F20106B44202BF4C692EF4804747EA54
:10294000841EC3F804E0DD614F681F64C3F820C033
:10295000DF6947F40067DF61DF6927F48067DF61C3
:10296000096909021368194300231160BDE8F041A9
:10297000002180F83C10D8B27047000010B5044622
:10298000002C04BF012010BD94F83D0028B90020A0
:1029900084F83C00204600F0B1F8022040F6FF32F7
:1029A00084F83D00C4F200022068016890420FDC08
:1029B000B0F1804F1EBF40F20043C4F200039842C2
:1029C00017D040F60003C4F20003984211D014E07F
:1029D00040F60043C4F2000398421EBF40F2004399
:1029E000C4F20103984204D00023C4F201039842C8
:1029F00003D1A36821F07001194341F6FF73C4F2BB
:102A0000000398420DDC90421FDCB0F1804F1EBFE6
:102A100040F20042C4F2000290423BD040F6000275
:102A200021E043F6FF72C4F20102904220DC42F240
:102A30000002C4F2000290421EBF0022C4F2010252
:102A4000904227D040F2004220E040F60042C4F21B
:102A5000000290421EBF41F60002C4F20002904202
:102A600018D041F60042C4F20002904212D015E0A4
:102A700044F20002C4F2010290421EBF44F600027A
:102A8000C4F20102904205D044F20042C4F20102B5
:102A9000904203D1226921F440711143E268A36995
:102AA00021F08001C262194340F200436268C4F21F
:102AB0000103826240F480629A4204BF6269026349
:102AC000026842F0040202600122426101600020BB
:102AD00084F8462084F83E2084F83F2084F8402083
:102AE00084F8412084F8422084F8432084F844206C
:102AF00084F8452084F83D2010BD00007047000098
:102B000070470000B0B5044641F200052068C4F2E9
:102B10000005A84202D1FEF747FE206805F5704186
:102B2000884218BFB0BD00F0D1FDBDE8B04001F053
:102B3000B1B8000070470000704700007047000007
:102B4000F0B581B0044620680168C268456901F0AB
:102B50002F0602F02003202E06D12BB1204601B013
:102B6000BDE8F04001F078B95FEA017C08D005F0DB
:102B7000010E12F4907F8EF0010558D1002D56D031
:102B80001140CA06226B3CD5012A3AD1002100919E
:102B900001680091416800910099416911F0400F6E
:102BA00040F0D580A18DE28DE38D002B00F04781B0
:102BB000891A89B209B942E1206850E8030F2268F6
:102BC00020F4907042E80303002BF5D1206850E810
:102BD000050F226820F0010042E80503002BF5D123
:102BE000202084F842000020206300BF206850E8C5
:102BF000030F226820F0100042E80303002BF5D1F8
:102C000007E10A0640F1EA8094F84110212940F0DA
:102C10001681A168B1F5805F04BF2169002900F029
:102C20000081216A4A1C22620978416000E1CE07D6
:102C300006D012F480761EBF666C46F0010666640C
:102C400001F00407012686EA97072F4302BF676C4D
:102C500047F00207676401F0020786EA570635432A
:102C600002BF656C45F00405656453EA0E0318BFA6
:102C70000123BCF1000F05D5012B02BF636C43F0AB
:102C800008036364636C002B00F0D980114089064F
:102C900003D5204601F0E0F820684169626C01F03C
:102CA000400102F00802114307D12046FFF746FF1A
:102CB0000020606401B0F0BD206850E8030F216877
:102CC00020F4907041E80302002AF5D1206850E812
:102CD000050F216820F0010041E80502002AF5D126
:102CE000206B01280AD100BF206850E8030F21683B
:102CF00020F0100041E80302002AF5D1202084F8DA
:102D00004200002020632068416911F0400F02D189
:102D100073E000BF206850E8050F216820F04000F4
:102D200041E80502002AF5D1E06B002865D043F6A2
:102D30004D61C0F600010165FEF734FB002800F08C
:102D40007E80E06B016D01B0BDE8F0400847E36BA9
:102D500019684D68A28DA9B2002954D0914252D26F
:102D6000E585D969B1F5807F01D131E0206850E86F
:102D7000030F216820F4807041E80302002AF5D196
:102D8000206850E8050F216820F0010041E80502A5
:102D9000002AF5D1206850E8050F216820F0400096
:102DA00041E80502002AF5D1202084F842000020E5
:102DB000206300BF206850E8030F216820F0100056
:102DC00041E80302002AF5D1E06BFEF7A9FAA28DD3
:102DD00002206063E08D101A81B21CE049062ED5F6
:102DE000C16821F04001C160202084F841002046E4
:102DF00001B0BDE8F04000F093B9204601B0BDE855
:102E0000F040FFF79BBE8A4204BFD869B0F5807FCF
:102E100015D102206063204601B0BDE8F040FFF705
:102E20008BBE216A31F8022B6FF35F224260216270
:102E3000E18C4FF6FF7201391142E18401D001B0FB
:102E4000F0BDC16821F08001C160C16841F040015E
:102E5000C16001B0F0BD000010B50446002C04BFF5
:102E6000012010BD94F8410028B9002084F84000EA
:102E7000204600F021F8242084F841002068C16831
:102E800021F40051C160204601F04CF8206801692E
:102E900021F490410161416921F02A014161C16839
:102EA00041F40051C16000202021606484F8411089
:102EB00084F84210606310BD2DE9F04387B000260E
:102EC000044641F200000696CDE90466CDE90266AB
:102ED000C4F201002168814202D007B0BDE8F0834E
:102EE00043F63001019600F57040C4F202014A69D0
:102EF00042F010024A614A6902F010020192019AFE
:102F000001960A6842F001020A60096801F00101B5
:102F1000019101994FF4C06102910221CDE903169C
:102F2000032105910721069102A9FEF751FB40F20A
:102F3000F00546F288474FF000694FF480684FF47F
:102F40008070C2F20005C4F20207C5E90079C5E944
:102F50000266C5E90486C5E906602846C5E9086633
:102F6000FEF732FA002818BFFDF71AFFE563AC63DD
:102F700040F2D01507F13000C2F20005C5E90009A2
:102F80004020A8600020C5E903086862C5E9070081
:102F9000C5E905002846FEF717FA002818BFFDF717
:102FA000FFFE252001210022A563AC63FEF770FC23
:102FB0002520FEF75DFC07B0BDE8F08370470000F8
:102FC0002DE9F04381B00446994616460F4694F821
:102FD000410020281AD1002F4FF0010018BF002E09
:102FE00000F0988000252120656484F84100FEF7F8
:102FF000D5FBA684E6848046A068B0F5805F07D143
:103000002669002E0CBF3D463E4602E0022081E0CC
:103010003E46E28C206801688AB319F1010217D09C
:10302000B9F1000F4CD100BF09066DD516B116F8E5
:10303000011B04E035F8021B00266FF35F2141609D
:10304000E18C0139E184E28C0168002AECD116E0C0
:10305000090603D4016811F0800FFBD016B116F8F1
:10306000011B04E035F8021B00266FF35F2141606D
:10307000E18C0139E184E28C0168002AE8D149063B
:1030800018D4B9F1000F3BD019F1010106D100BFEE
:10309000016811F0400FFBD00CE000BFFEF77EFB93
:1030A000A0EB0800484539D82068C168006810F0D6
:1030B000400FF3D00020202184F841102AE000BF07
:1030C00009060BD4FEF76AFBA0EB080048451DD8A3
:1030D0002068C168016811F0800FF3D016B116F8AE
:1030E000011B04E035F8021B00266FF35F214160ED
:1030F000E18C0139E184E28C0168002AE0D1BEE76D
:10310000FEF74CFB0320D6E7FEF748FB202084F8AF
:1031100041000320C0B201B0BDE8F0830320CAE73C
:1031200070470000FEE7000010B584B041F658007B
:1031300042F20002002101244FF00063C2F20000BD
:10314000C4F20102CDE90211CDE9001102604FF491
:103150008032C0E901214FF080520461017680F88D
:103160002010C0E90A32C1600221C16180F83040FC
:103170004461FDF7A7FE002818BFFDF711FE0A20E5
:103180006946CDE9000441F658000294C2F20000FD
:10319000FDF70AFE002818BFFDF702FE0B20694666
:1031A00000900220019041F65800C2F20000FDF7A5
:1031B000FBFD002818BFFDF7F3FD04B010BD0000B3
:1031C00010B584B041F6A00042F2001200210124A3
:1031D0004FF00063C2F20000C4F20102CDE9021117
:1031E000CDE9001102604FF48032C0E901214FF0B7
:1031F00080520461017680F82010C0E90A32C16073
:103200000221C16180F830404461FDF75BFE002877
:1032100018BFFDF7C5FD0C206946CDE9000441F655
:10322000A0000294C2F20000FDF7BEFD002818BF06
:10323000FDF7B6FD0D20694600900220019041F691
:10324000A000C2F20000FDF7AFFD002818BFFDF797
:10325000A7FD04B010BD0000B0B584B041F6E80091
:1032600042F20021002401254FF00062C2F200006A
:10327000C4F20101CDE90244CDE9004401604FF4FC
:103280008031C0E901144FF080510561047680F867
:103290002040C0E90A210221C460C16180F8305099
:1032A0004561FDF70FFE002818BFFDF779FD41F6D7
:1032B000E8006946CDE900450295C2F20000FDF73D
:1032C00073FD002818BFFDF76BFD012069460090D3
:1032D0000220019041F6E800C2F20000FDF764FD13
:1032E000002818BFFDF75CFD04B0B0BD81B0002020
:1032F000009043F63000C4F20200016841F48001FE
:103300000160006800F480000090009801B07047F0
:103310002DE9F04387B043F63000002740F2004427
:1033200000224FF0010806970197C4F20200C4F290
:103330000204016841F080010160016801F0800130
:10334000019101990197016841F004010160016850
:1033500001F00401019101990197016841F0010117
:103360000160016801F00101019101990197016873
:1033700041F002010160016801F00201019101992F
:103380000197016841F010010160016801F010012E
:10339000019101990197016841F008010160012143
:1033A000006800F00800019001982046FEF7F0F94F
:1033B00004F500654FF4605100224FF4605928462F
:1033C000FEF7E6F902AE2046CDE90288CDE90477A2
:1033D0003146FEF7FDF828463146CDE90298CDE9A1
:1033E0000477FEF7F5F807B0BDE8F08370B59CB040
:1033F00041F6301000250021602240F634030126FA
:103400008024C2F20000C4F201051591CDE9131128
:10341000CDE91111CDE90F11CDE90D11CDE90B1158
:10342000CDE90911CDE90711CDE90511CDE9031168
:10343000CDE90111C0E90051C0E90223C0E9041639
:103440008461FEF781FE002818BFFDF7A9FC4FF448
:10345000805012A9129041F63010C2F20000FFF71E
:1034600015F8002818BFFDF79BFC41F63010C2F29A
:103470000000FFF783FA002818BFFDF791FC41F622
:103480003010002410A9C2F20000CDE91044FEF76C
:1034900081FD002818BFFDF783FC60200F94CDE963
:1034A0000D44CDE90B4409A90022CDE9090441F6F8
:1034B0003010C2F20000FFF74BF9002818BFFDF7EB
:1034C0006FFC41F6301400267F2001A9CDE901668A
:1034D0000396CDE904064FF40050C2F200040690B2
:1034E00020460896FEF72CFD002818BFFDF758FC73
:1034F0001B96CDE91966CDE917662068A84201D070
:103500001CB070BD43F6300100201690C4F20201D9
:103510000A6842F010020A60096801F01001169171
:1035200016994FF4407117910221CDE918101A90A5
:10353000012017A91B9005F58830FEF749F81CB04B
:1035400070BD000080B586B041F6781040F20042B0
:10355000002129234FF0040CC2F20000C4F2000243
:10356000CDE90411CDE90211CDE90011C0E9002334
:10357000C0E9021C016180218161FEF7E5FD0028A0
:1035800018BFFDF70DFC4FF4805002A9029041F6E0
:103590007810C2F20000FEF779FF002818BFFDF78F
:1035A000FFFB2020694600900020019041F6781032
:1035B000C2F20000FEF7EEFC002818BFFDF7F0FB9A
:1035C00006B080BD10B541F6C01441F200004FF4C2
:1035D000E13100220C23C2F20004C4F2010084E8AD
:1035E00007002046C4E90322C4E90532E261FFF77F
:1035F00033FC002818BFFDF7D3FB2068C16841F0F9
:103600001001C160C16841F02001C16010BD00001F
:10361000FEE7000010B541F29C204CF6CD4144F28B
:103620006703002244F6200C40F2000E0024C2F290
:103630000000C3F64C71C3F65343C3F63E4CCCF2C4
:10364000C81ECCF248140160C0E90111C0E907228C
:10365000C0E90311C0E90922C0E905124FF07E510B
:10366000C262C0E91A32C0E91C1244F62001C0E966
:1036700012CEC0E914320222C3F6BE31C0E91614DC
:10368000C0E9181440F2902441F65800C2F2000438
:10369000C2F200002146FDF783FD41F6A000211D86
:1036A0000222C2F20000FDF77BFD41F6E80004F1C2
:1036B00008010222C2F20000FDF772FD41F6781007
:1036C000C2F20000BDE81040FEF734BE40F2902187
:1036D00041F29C20B7EE000AC2F20001C2F20000E3
:1036E0000A8890ED001A90ED062A04EE102A30EEBA
:1036F000413AB8EE444A4A8823EE043A01EE023ACF
:1037000080ED0C3A80ED063A90ED121A90ED132AF6
:1037100004EE102A01EE032A80ED1E2A90ED011A14
:1037200090ED072AB8EE444A8A8830EE413A23EEFB
:10373000043A04EE102A01EE023A80ED0D3A80EDD3
:10374000073A90ED141A90ED152A01EE032A80ED48
:103750001F2A90ED021A90ED082AB8EE444ACA8852
:1037600030EE413A23EE043A04EE102A01EE023A1A
:1037700080ED0E3A80ED083A90ED161A90ED172A7A
:1037800001EE032A80ED202A90ED031A90ED092A1C
:10379000B8EE444A0A8930EE413A23EE043A04EE88
:1037A000102A01EE023A80ED0F3A80ED093A90EDD1
:1037B000181A90ED192A01EE032A80ED212A90EDC6
:1037C000041A90ED0A2AB8EE444A498930EE413A8B
:1037D00023EE043A01EE023A80ED103A80ED0A3A07
:1037E00090ED1A1A90ED1B2A01EE032A03EE101A2F
:1037F00080ED222A90ED051A90ED0B2AB8EE433A9F
:1038000030EE410A20EE030A01EE020A80ED110AB1
:1038100080ED0B0A90ED1C1A90ED1D2A01EE002A96
:1038200080ED232A70470000FEE70000704700008B
:10383000B0B5202541F6301440F21A400021C4F200
:103840000105C2F2000468612046FEF701FC286809
:1038500020F0050028602046BDE8B040FEF7BEBD60
:103860002DE9F04141F2B0350446984617460E4620
:10387000C2F200052878E8BB2846A821FCF7EAFC3C
:10388000032044F2881147222861686141F25840C0
:10389000C0F60001C2F20000A961E8614FF4806047
:1038A00028620020A8626862E862296640F250112E
:1038B000C2F20001013169661021A966532128670F
:1038C000E8666867BFF35F8F297045216970AA7049
:1038D000EA702971522120226971AA71E97154217B
:1038E00029726972A872E87228736873A873E87302
:1038F000BFF35F8F022C84BF4FF0FF30BDE8F08133
:10390000EFF311804FF0200181F31188069A54B132
:1039100004EB4401002305EBC1018E61CF61C1F8C6
:1039200020808B624B6204EB440105EBC101CA624B
:1039300080F311880020BDE8F0810000F0B581B06F
:1039400041F2B037064614460D46C2F200073878F9
:10395000E8BB3846A821FCF77DFC032044F288111F
:1039600047223861786141F25840C0F60001C2F246
:103970000000B961F8614FF4806038620020B862DD
:103980007862F862396640F25011C2F200010131EA
:1039900079661021B96653213867F8667867BFF3F6
:1039A0005F8F397045217970BA70FA703971522180
:1039B00020227971BA71F971542139727972B87211
:1039C000F87238737873B873F873BFF35F8FEFF3DF
:1039D00011874FF0200181F3118830462246294695
:1039E00000F004F887F3118801B0F0BD2DE9F04F25
:1039F00081B00D4641F2B03100EB40009146C2F279
:103A0000000101EBC00ADAF82C0002280ED00128D0
:103A100040D0002863D1D046DAF8280058F8244F67
:103A2000A04270D94FF0FF32014670E05AF8244F9F
:103A30000026AAF10800AAF1040B0AF1040800907C
:103A4000D8F80000DBF80010E243A042A1EB040725
:103A500088BF014698BF024450182946B84238BF73
:103A600007464F4528BF4F4600983A460068204415
:103A7000FCF7D7FBDBF800003C443D443E44844265
:103A800008BF0024B9EB0709BFF35F8FCAF80040F5
:103A9000D6D167E0DAF828005AF8244F5AF8041C07
:103AA000A0420246D04698BF4A1E88BF4FF0FF3062
:103AB0000E1B121B1044484538BF814658F8080DAC
:103AC000B14520440DD229464A46FCF7AAFB09EB32
:103AD0000400BFF35F8F4E46CAF8000042E00026A4
:103AE00040E029463246FCF79CFBD8F80000A919B3
:103AF000A9EB06052A46FCF794FBBFF35F8FCAF8D3
:103B000000504E462EE0DAF8201002460139081B1C
:103B10001044484501D2002624E05AF81C0FDAF878
:103B2000041020440E1B4E450BD929464A46FCF78B
:103B300078FB04EB0900BFF35F8F4E46C8F8000026
:103B400010E029463246FCF76CFBDAF80000A919B0
:103B5000A9EB06052A46FCF764FBBFF35F8FC8F8A4
:103B600000504E46304601B0BDE8F08F704700006F
:103B700080B598B04AF2010E4FF6FE7C8DF8000039
:103B80008DF801102CEA0003CFF6FF7EC0438EEAC9
:103B9000530210F0010F08BF5A086423C2F34E000D
:103BA00012F0010F18BF80EA0E00C0F34E0210F0B1
:103BB000010F18BF82EA0E02C2F34E0012F0010F8D
:103BC00018BF80EA0E00C0F34E0210F0010F18BFBC
:103BD00082EA0E02C2F34E0012F0010F18BF80EA13
:103BE0000E00C0F34E0210F0010F18BF82EA0E0261
:103BF000C2F34E0012F0010F18BF80EA0E004840D9
:103C000000EA0C0110F0010F8EEA510208BF4A08C9
:103C1000C2F34E0012F0010F4FF0040218BF80EA09
:103C20000E00C0F34E0110F0010F18BF81EA0E0123
:103C3000C1F34E0011F0010F18BF80EA0E00C0F36F
:103C40004E0110F0010F18BF81EA0E01C1F34E00C2
:103C500011F0010F18BF80EA0E00C0F34E0110F002
:103C6000010F18BF81EA0E01C1F34E0011F0010FE0
:103C7000694618BF80EA0E008DF80200000A8DF830
:103C8000030041F6C010C2F20000FFF799F918B026
:103C900080BD0000B0B582B040F21004C2F2000452
:103CA000207F002868D020250128C4F2010519D101
:103CB000607F012809D000285ED1286840F0050007
:103CC00028600120607702B0B0BDFCF7CFFE607FB6
:103CD000032806D1286820F00500286002202077FC
:103CE00002E0207F022847D128684BF2177100229A
:103CF000002304F1340CC3F6D101CCF22012C4F23B
:103D0000201320F00500286000200025C4F2701068
:103D1000657725772062142084F825004FF08040D5
:103D200025746574C4E905054DF20A70C3F6A34015
:103D30008CE82300C4E910320020002200234FF059
:103D40007E5104F1580CC4F24820C4F2C822C4F2D7
:103D5000FA438CE82300C4E9193244F2741140F2AA
:103D60009C224FF4805300952088C0F60001C2F2D7
:103D70000002FFF775FDA58302B0B0BDFDF714BDCD
:103D8000B0B592B043F6400000240225CDE90A44C4
:103D9000CDE908440594CDE90344CDE901440094FC
:103DA000C4F20200016841F080510160006800F037
:103DB000805000900098009447F20000C4F2000088
:103DC000016841F480410160006800F48040009087
:103DD0000098012006904FF4803007904FF4800047
:103DE0000C950D9019200E904FF4A870CDE90F0599
:103DF0000420119006A8FDF79DFE10B172B600BF19
:103E0000FEE70F200521CDE901054FF4A0500394F2
:103E100004904FF48050059001A8FDF77BFD002829
:103E200004BF12B0B0BD72B6FEE700004EF6885077
:103E3000CEF20000016841F470010160704700009B
:103E400041F63010C2F20000FEF7F2BB806B002199
:103E5000C185FEF773BE000090F84210222918BFFA
:103E600070478368B3F5805F06D1026900F12801CD
:103E7000A2B1D1F800C008E00146002B51F828CFCC
:103E800001D103690BB17F2300E0FF230268526870
:103E90001A4001238CF800200A6806E00368826A51
:103EA0005B686FF35F23138002231A440A604FF6A6
:103EB000FF72C18D01391142C18500D07047016880
:103EC000CA6822F02002CA60CA6822F48072CA60FE
:103ED0004A6922F001024A61202280F84220002231
:103EE0004263036B012B18BFFFF768B8026300BF82
:103EF00051E8031F026821F0100142E80313016832
:103F0000002BF5D10A6812F0100F08D081B0002202
:103F100000920A68009249680091009901B0818D71
:103F2000FEF70ABEB0B5044649F20C652068016987
:103F3000E26821F4405111430161D4F808C0D4E98A
:103F40000423D4F81CE0C16842EA0C02A9431A43D6
:103F500042EA0E021143C1604169A26921F4407135
:103F60001143416141F2004140F48060C4F201011B
:103F7000884202D1FDF794FD01E0FDF77DFDE26985
:103F800063681921A0FB0101B2F5004F1CD15A0052
:103F9000DB0FFCF715F948F21F51C5F2EB11A0FB3E
:103FA00001235A096FF0630302FB0300322303EB82
:103FB000C000A0FB01014FF4F87000EA1110C1F33A
:103FC000421100EB02101AE09A009B0FFCF7F8F880
:103FD00048F21F51C5F2EB11A0FB01235A096FF003
:103FE000630302FB0300322303EB0010A0FB01017B
:103FF000F02000EA5110C1F3431100EB0210084316
:1040000021688860B0BD000041F6C010C2F2000017
:104010000068016811F0200F1CBFC16811F0200F6B
:1040200017D041F22C31D0F804C0C2F2000191F84F
:1040300082305A1C81F8822001F803C091F9822055
:10404000B2F1FF3FDCBF002281F882206FF0200137
:104050000160016811F0100F1CBFC16811F0100F52
:104060000FD00168406841F22C300121C2F20000FB
:1040700080F8801090F8821080F88110002180F87C
:10408000821041F6C010C2F20000FEF759BD0000D8
:10409000FEE7000080B582B0019041F6C01001A992
:1040A00001224FF6FF73C2F20000FEF789FF01986C
:1040B00002B080BD80B5FDF781FBFFF761FEFFF721
:1040C00027F9FFF713F9FFF72FF8FFF779F8FFF754
:1040D000C3F8FFF78BF9FFF775FAFFF733FAFCF730
:1040E0000DFEFFF7A5FBFFF795FAFCF735F903A0E6
:1040F00000F01EF8FCF742F9FCE700BF5379737437
:10410000656D20496E6974204F4B2021210000000D
:1041100002E008C8121F08C1002AFAD17047704790
:10412000002001E001C1121F002AFBD170470000EE
:1041300010B5044601E0FFF7ADFF14F8010B044988
:104140000028F8D1BDE810400A20FFF7A3BF000007
:104150000000002000000000000000000102030435
:1041600006070809000000000102030400061016FB
:10417000000610164A53636F70655F6932693269D1
:1041800032693269326932005465726D696E616CF0
:1041900000000000C0410008000000209000000066
:1041A000104100085042000890000020801D0000CF
:1041B0002041000800000000000000000000000096
:1041C00000000000010000001000000000000000DE
:1041D00001000000000000000000000000000000DE
:1041E00000000000000000000000000000000000CF
:1041F00000000000000000000000000000000000BF
:1042000000000000000000000000000000000000AE
:10421000000000000000000000000000000000009E
:10422000000000000000000000000000000000008E
:10423000000000000000000000000000000000007E
:104240000024F40000000000000000000000000056
:040000050800018965
:00000001FF
